{
	"contracts/obnegt.sol": {
		"Storage": {
			"abi": [
				{
					"inputs": [],
					"name": "GetPerson",
					"outputs": [
						{
							"internalType": "string",
							"name": "",
							"type": "string"
						},
						{
							"internalType": "uint256",
							"name": "",
							"type": "uint256"
						}
					],
					"stateMutability": "view",
					"type": "function"
				},
				{
					"inputs": [
						{
							"internalType": "string",
							"name": "_name",
							"type": "string"
						},
						{
							"internalType": "uint256",
							"name": "_age",
							"type": "uint256"
						}
					],
					"name": "SetPerson",
					"outputs": [],
					"stateMutability": "nonpayable",
					"type": "function"
				},
				{
					"inputs": [],
					"name": "personONE",
					"outputs": [
						{
							"internalType": "string",
							"name": "name",
							"type": "string"
						},
						{
							"internalType": "uint256",
							"name": "age",
							"type": "uint256"
						}
					],
					"stateMutability": "view",
					"type": "function"
				}
			],
			"devdoc": {
				"kind": "dev",
				"methods": {},
				"version": 1
			},
			"evm": {
				"assembly": "    /* \"contracts/obnegt.sol\":76:421  contract Storage {... */\n  mstore(0x40, 0x80)\n  callvalue\n  dup1\n  iszero\n  tag_1\n  jumpi\n  revert(0x00, 0x00)\ntag_1:\n  pop\n  dataSize(sub_0)\n  dup1\n  dataOffset(sub_0)\n  0x00\n  codecopy\n  0x00\n  return\nstop\n\nsub_0: assembly {\n        /* \"contracts/obnegt.sol\":76:421  contract Storage {... */\n      mstore(0x40, 0x80)\n      callvalue\n      dup1\n      iszero\n      tag_1\n      jumpi\n      revert(0x00, 0x00)\n    tag_1:\n      pop\n      jumpi(tag_2, lt(calldatasize, 0x04))\n      shr(0xe0, calldataload(0x00))\n      dup1\n      0x70485b2b\n      eq\n      tag_3\n      jumpi\n      dup1\n      0x81cf40b7\n      eq\n      tag_4\n      jumpi\n      dup1\n      0x84615039\n      eq\n      tag_5\n      jumpi\n    tag_2:\n      revert(0x00, 0x00)\n        /* \"contracts/obnegt.sol\":298:416  function GetPerson() external view returns ( string memory ,uint) {... */\n    tag_3:\n      tag_6\n      tag_7\n      jump\t// in\n    tag_6:\n      mload(0x40)\n      tag_8\n      swap3\n      swap2\n      swap1\n      tag_9\n      jump\t// in\n    tag_8:\n      mload(0x40)\n      dup1\n      swap2\n      sub\n      swap1\n      return\n        /* \"contracts/obnegt.sol\":190:291  function SetPerson(string memory _name, uint _age) public {... */\n    tag_4:\n      tag_10\n      0x04\n      dup1\n      calldatasize\n      sub\n      dup2\n      add\n      swap1\n      tag_11\n      swap2\n      swap1\n      tag_12\n      jump\t// in\n    tag_11:\n      tag_13\n      jump\t// in\n    tag_10:\n      stop\n        /* \"contracts/obnegt.sol\":159:182  Person public personONE */\n    tag_5:\n      tag_14\n      tag_15\n      jump\t// in\n    tag_14:\n      mload(0x40)\n      tag_16\n      swap3\n      swap2\n      swap1\n      tag_9\n      jump\t// in\n    tag_16:\n      mload(0x40)\n      dup1\n      swap2\n      sub\n      swap1\n      return\n        /* \"contracts/obnegt.sol\":298:416  function GetPerson() external view returns ( string memory ,uint) {... */\n    tag_7:\n        /* \"contracts/obnegt.sol\":343:356  string memory */\n      0x60\n        /* \"contracts/obnegt.sol\":358:362  uint */\n      0x00\n        /* \"contracts/obnegt.sol\":378:387  personONE */\n      0x00\n        /* \"contracts/obnegt.sol\":378:392  personONE.name */\n      0x00\n      add\n        /* \"contracts/obnegt.sol\":394:403  personONE */\n      0x00\n        /* \"contracts/obnegt.sol\":394:407  personONE.age */\n      0x01\n      add\n      sload\n        /* \"contracts/obnegt.sol\":371:409  return(personONE.name ,personONE.age ) */\n      dup2\n      dup1\n      sload\n      tag_18\n      swap1\n      tag_19\n      jump\t// in\n    tag_18:\n      dup1\n      0x1f\n      add\n      0x20\n      dup1\n      swap2\n      div\n      mul\n      0x20\n      add\n      mload(0x40)\n      swap1\n      dup2\n      add\n      0x40\n      mstore\n      dup1\n      swap3\n      swap2\n      swap1\n      dup2\n      dup2\n      mstore\n      0x20\n      add\n      dup3\n      dup1\n      sload\n      tag_20\n      swap1\n      tag_19\n      jump\t// in\n    tag_20:\n      dup1\n      iszero\n      tag_21\n      jumpi\n      dup1\n      0x1f\n      lt\n      tag_22\n      jumpi\n      0x0100\n      dup1\n      dup4\n      sload\n      div\n      mul\n      dup4\n      mstore\n      swap2\n      0x20\n      add\n      swap2\n      jump(tag_21)\n    tag_22:\n      dup3\n      add\n      swap2\n      swap1\n      0x00\n      mstore\n      keccak256(0x00, 0x20)\n      swap1\n    tag_23:\n      dup2\n      sload\n      dup2\n      mstore\n      swap1\n      0x01\n      add\n      swap1\n      0x20\n      add\n      dup1\n      dup4\n      gt\n      tag_23\n      jumpi\n      dup3\n      swap1\n      sub\n      0x1f\n      and\n      dup3\n      add\n      swap2\n    tag_21:\n      pop\n      pop\n      pop\n      pop\n      pop\n      swap2\n      pop\n      swap2\n      pop\n      swap2\n      pop\n        /* \"contracts/obnegt.sol\":298:416  function GetPerson() external view returns ( string memory ,uint) {... */\n      swap1\n      swap2\n      jump\t// out\n        /* \"contracts/obnegt.sol\":190:291  function SetPerson(string memory _name, uint _age) public {... */\n    tag_13:\n        /* \"contracts/obnegt.sol\":266:284  Person(_name,_age) */\n      mload(0x40)\n      dup1\n      0x40\n      add\n      0x40\n      mstore\n      dup1\n        /* \"contracts/obnegt.sol\":273:278  _name */\n      dup4\n        /* \"contracts/obnegt.sol\":266:284  Person(_name,_age) */\n      dup2\n      mstore\n      0x20\n      add\n        /* \"contracts/obnegt.sol\":279:283  _age */\n      dup3\n        /* \"contracts/obnegt.sol\":266:284  Person(_name,_age) */\n      dup2\n      mstore\n      pop\n        /* \"contracts/obnegt.sol\":255:264  personONE */\n      0x00\n        /* \"contracts/obnegt.sol\":255:284  personONE= Person(_name,_age) */\n      0x00\n      dup3\n      add\n      mload\n      dup2\n      0x00\n      add\n      swap1\n      dup2\n      tag_25\n      swap2\n      swap1\n      tag_26\n      jump\t// in\n    tag_25:\n      pop\n      0x20\n      dup3\n      add\n      mload\n      dup2\n      0x01\n      add\n      sstore\n      swap1\n      pop\n      pop\n        /* \"contracts/obnegt.sol\":190:291  function SetPerson(string memory _name, uint _age) public {... */\n      pop\n      pop\n      jump\t// out\n        /* \"contracts/obnegt.sol\":159:182  Person public personONE */\n    tag_15:\n      0x00\n      dup1\n      0x00\n      add\n      dup1\n      sload\n      tag_27\n      swap1\n      tag_19\n      jump\t// in\n    tag_27:\n      dup1\n      0x1f\n      add\n      0x20\n      dup1\n      swap2\n      div\n      mul\n      0x20\n      add\n      mload(0x40)\n      swap1\n      dup2\n      add\n      0x40\n      mstore\n      dup1\n      swap3\n      swap2\n      swap1\n      dup2\n      dup2\n      mstore\n      0x20\n      add\n      dup3\n      dup1\n      sload\n      tag_28\n      swap1\n      tag_19\n      jump\t// in\n    tag_28:\n      dup1\n      iszero\n      tag_29\n      jumpi\n      dup1\n      0x1f\n      lt\n      tag_30\n      jumpi\n      0x0100\n      dup1\n      dup4\n      sload\n      div\n      mul\n      dup4\n      mstore\n      swap2\n      0x20\n      add\n      swap2\n      jump(tag_29)\n    tag_30:\n      dup3\n      add\n      swap2\n      swap1\n      0x00\n      mstore\n      keccak256(0x00, 0x20)\n      swap1\n    tag_31:\n      dup2\n      sload\n      dup2\n      mstore\n      swap1\n      0x01\n      add\n      swap1\n      0x20\n      add\n      dup1\n      dup4\n      gt\n      tag_31\n      jumpi\n      dup3\n      swap1\n      sub\n      0x1f\n      and\n      dup3\n      add\n      swap2\n    tag_29:\n      pop\n      pop\n      pop\n      pop\n      pop\n      swap1\n      dup1\n      0x01\n      add\n      sload\n      swap1\n      pop\n      dup3\n      jump\t// out\n        /* \"#utility.yul\":7:106   */\n    tag_32:\n        /* \"#utility.yul\":59:65   */\n      0x00\n        /* \"#utility.yul\":93:98   */\n      dup2\n        /* \"#utility.yul\":87:99   */\n      mload\n        /* \"#utility.yul\":77:99   */\n      swap1\n      pop\n        /* \"#utility.yul\":7:106   */\n      swap2\n      swap1\n      pop\n      jump\t// out\n        /* \"#utility.yul\":112:281   */\n    tag_33:\n        /* \"#utility.yul\":196:207   */\n      0x00\n        /* \"#utility.yul\":230:236   */\n      dup3\n        /* \"#utility.yul\":225:228   */\n      dup3\n        /* \"#utility.yul\":218:237   */\n      mstore\n        /* \"#utility.yul\":270:274   */\n      0x20\n        /* \"#utility.yul\":265:268   */\n      dup3\n        /* \"#utility.yul\":261:275   */\n      add\n        /* \"#utility.yul\":246:275   */\n      swap1\n      pop\n        /* \"#utility.yul\":112:281   */\n      swap3\n      swap2\n      pop\n      pop\n      jump\t// out\n        /* \"#utility.yul\":287:426   */\n    tag_34:\n        /* \"#utility.yul\":376:382   */\n      dup3\n        /* \"#utility.yul\":371:374   */\n      dup2\n        /* \"#utility.yul\":366:369   */\n      dup4\n        /* \"#utility.yul\":360:383   */\n      mcopy\n        /* \"#utility.yul\":417:418   */\n      0x00\n        /* \"#utility.yul\":408:414   */\n      dup4\n        /* \"#utility.yul\":403:406   */\n      dup4\n        /* \"#utility.yul\":399:415   */\n      add\n        /* \"#utility.yul\":392:419   */\n      mstore\n        /* \"#utility.yul\":287:426   */\n      pop\n      pop\n      pop\n      jump\t// out\n        /* \"#utility.yul\":432:534   */\n    tag_35:\n        /* \"#utility.yul\":473:479   */\n      0x00\n        /* \"#utility.yul\":524:526   */\n      0x1f\n        /* \"#utility.yul\":520:527   */\n      not\n        /* \"#utility.yul\":515:517   */\n      0x1f\n        /* \"#utility.yul\":508:513   */\n      dup4\n        /* \"#utility.yul\":504:518   */\n      add\n        /* \"#utility.yul\":500:528   */\n      and\n        /* \"#utility.yul\":490:528   */\n      swap1\n      pop\n        /* \"#utility.yul\":432:534   */\n      swap2\n      swap1\n      pop\n      jump\t// out\n        /* \"#utility.yul\":540:917   */\n    tag_36:\n        /* \"#utility.yul\":628:631   */\n      0x00\n        /* \"#utility.yul\":656:695   */\n      tag_75\n        /* \"#utility.yul\":689:694   */\n      dup3\n        /* \"#utility.yul\":656:695   */\n      tag_32\n      jump\t// in\n    tag_75:\n        /* \"#utility.yul\":711:782   */\n      tag_76\n        /* \"#utility.yul\":775:781   */\n      dup2\n        /* \"#utility.yul\":770:773   */\n      dup6\n        /* \"#utility.yul\":711:782   */\n      tag_33\n      jump\t// in\n    tag_76:\n        /* \"#utility.yul\":704:782   */\n      swap4\n      pop\n        /* \"#utility.yul\":791:856   */\n      tag_77\n        /* \"#utility.yul\":849:855   */\n      dup2\n        /* \"#utility.yul\":844:847   */\n      dup6\n        /* \"#utility.yul\":837:841   */\n      0x20\n        /* \"#utility.yul\":830:835   */\n      dup7\n        /* \"#utility.yul\":826:842   */\n      add\n        /* \"#utility.yul\":791:856   */\n      tag_34\n      jump\t// in\n    tag_77:\n        /* \"#utility.yul\":881:910   */\n      tag_78\n        /* \"#utility.yul\":903:909   */\n      dup2\n        /* \"#utility.yul\":881:910   */\n      tag_35\n      jump\t// in\n    tag_78:\n        /* \"#utility.yul\":876:879   */\n      dup5\n        /* \"#utility.yul\":872:911   */\n      add\n        /* \"#utility.yul\":865:911   */\n      swap2\n      pop\n        /* \"#utility.yul\":632:917   */\n      pop\n        /* \"#utility.yul\":540:917   */\n      swap3\n      swap2\n      pop\n      pop\n      jump\t// out\n        /* \"#utility.yul\":923:1000   */\n    tag_37:\n        /* \"#utility.yul\":960:967   */\n      0x00\n        /* \"#utility.yul\":989:994   */\n      dup2\n        /* \"#utility.yul\":978:994   */\n      swap1\n      pop\n        /* \"#utility.yul\":923:1000   */\n      swap2\n      swap1\n      pop\n      jump\t// out\n        /* \"#utility.yul\":1006:1124   */\n    tag_38:\n        /* \"#utility.yul\":1093:1117   */\n      tag_81\n        /* \"#utility.yul\":1111:1116   */\n      dup2\n        /* \"#utility.yul\":1093:1117   */\n      tag_37\n      jump\t// in\n    tag_81:\n        /* \"#utility.yul\":1088:1091   */\n      dup3\n        /* \"#utility.yul\":1081:1118   */\n      mstore\n        /* \"#utility.yul\":1006:1124   */\n      pop\n      pop\n      jump\t// out\n        /* \"#utility.yul\":1130:1553   */\n    tag_9:\n        /* \"#utility.yul\":1271:1275   */\n      0x00\n        /* \"#utility.yul\":1309:1311   */\n      0x40\n        /* \"#utility.yul\":1298:1307   */\n      dup3\n        /* \"#utility.yul\":1294:1312   */\n      add\n        /* \"#utility.yul\":1286:1312   */\n      swap1\n      pop\n        /* \"#utility.yul\":1358:1367   */\n      dup2\n        /* \"#utility.yul\":1352:1356   */\n      dup2\n        /* \"#utility.yul\":1348:1368   */\n      sub\n        /* \"#utility.yul\":1344:1345   */\n      0x00\n        /* \"#utility.yul\":1333:1342   */\n      dup4\n        /* \"#utility.yul\":1329:1346   */\n      add\n        /* \"#utility.yul\":1322:1369   */\n      mstore\n        /* \"#utility.yul\":1386:1464   */\n      tag_83\n        /* \"#utility.yul\":1459:1463   */\n      dup2\n        /* \"#utility.yul\":1450:1456   */\n      dup6\n        /* \"#utility.yul\":1386:1464   */\n      tag_36\n      jump\t// in\n    tag_83:\n        /* \"#utility.yul\":1378:1464   */\n      swap1\n      pop\n        /* \"#utility.yul\":1474:1546   */\n      tag_84\n        /* \"#utility.yul\":1542:1544   */\n      0x20\n        /* \"#utility.yul\":1531:1540   */\n      dup4\n        /* \"#utility.yul\":1527:1545   */\n      add\n        /* \"#utility.yul\":1518:1524   */\n      dup5\n        /* \"#utility.yul\":1474:1546   */\n      tag_38\n      jump\t// in\n    tag_84:\n        /* \"#utility.yul\":1130:1553   */\n      swap4\n      swap3\n      pop\n      pop\n      pop\n      jump\t// out\n        /* \"#utility.yul\":1559:1634   */\n    tag_39:\n        /* \"#utility.yul\":1592:1598   */\n      0x00\n        /* \"#utility.yul\":1625:1627   */\n      0x40\n        /* \"#utility.yul\":1619:1628   */\n      mload\n        /* \"#utility.yul\":1609:1628   */\n      swap1\n      pop\n        /* \"#utility.yul\":1559:1634   */\n      swap1\n      jump\t// out\n        /* \"#utility.yul\":1640:1757   */\n    tag_40:\n        /* \"#utility.yul\":1749:1750   */\n      0x00\n        /* \"#utility.yul\":1746:1747   */\n      0x00\n        /* \"#utility.yul\":1739:1751   */\n      revert\n        /* \"#utility.yul\":1763:1880   */\n    tag_41:\n        /* \"#utility.yul\":1872:1873   */\n      0x00\n        /* \"#utility.yul\":1869:1870   */\n      0x00\n        /* \"#utility.yul\":1862:1874   */\n      revert\n        /* \"#utility.yul\":1886:2003   */\n    tag_42:\n        /* \"#utility.yul\":1995:1996   */\n      0x00\n        /* \"#utility.yul\":1992:1993   */\n      0x00\n        /* \"#utility.yul\":1985:1997   */\n      revert\n        /* \"#utility.yul\":2009:2126   */\n    tag_43:\n        /* \"#utility.yul\":2118:2119   */\n      0x00\n        /* \"#utility.yul\":2115:2116   */\n      0x00\n        /* \"#utility.yul\":2108:2120   */\n      revert\n        /* \"#utility.yul\":2132:2312   */\n    tag_44:\n        /* \"#utility.yul\":2180:2257   */\n      0x4e487b7100000000000000000000000000000000000000000000000000000000\n        /* \"#utility.yul\":2177:2178   */\n      0x00\n        /* \"#utility.yul\":2170:2258   */\n      mstore\n        /* \"#utility.yul\":2277:2281   */\n      0x41\n        /* \"#utility.yul\":2274:2275   */\n      0x04\n        /* \"#utility.yul\":2267:2282   */\n      mstore\n        /* \"#utility.yul\":2301:2305   */\n      0x24\n        /* \"#utility.yul\":2298:2299   */\n      0x00\n        /* \"#utility.yul\":2291:2306   */\n      revert\n        /* \"#utility.yul\":2318:2599   */\n    tag_45:\n        /* \"#utility.yul\":2401:2428   */\n      tag_92\n        /* \"#utility.yul\":2423:2427   */\n      dup3\n        /* \"#utility.yul\":2401:2428   */\n      tag_35\n      jump\t// in\n    tag_92:\n        /* \"#utility.yul\":2393:2399   */\n      dup2\n        /* \"#utility.yul\":2389:2429   */\n      add\n        /* \"#utility.yul\":2531:2537   */\n      dup2\n        /* \"#utility.yul\":2519:2529   */\n      dup2\n        /* \"#utility.yul\":2516:2538   */\n      lt\n        /* \"#utility.yul\":2495:2513   */\n      0xffffffffffffffff\n        /* \"#utility.yul\":2483:2493   */\n      dup3\n        /* \"#utility.yul\":2480:2514   */\n      gt\n        /* \"#utility.yul\":2477:2539   */\n      or\n        /* \"#utility.yul\":2474:2562   */\n      iszero\n      tag_93\n      jumpi\n        /* \"#utility.yul\":2542:2560   */\n      tag_94\n      tag_44\n      jump\t// in\n    tag_94:\n        /* \"#utility.yul\":2474:2562   */\n    tag_93:\n        /* \"#utility.yul\":2582:2592   */\n      dup1\n        /* \"#utility.yul\":2578:2580   */\n      0x40\n        /* \"#utility.yul\":2571:2593   */\n      mstore\n        /* \"#utility.yul\":2361:2599   */\n      pop\n        /* \"#utility.yul\":2318:2599   */\n      pop\n      pop\n      jump\t// out\n        /* \"#utility.yul\":2605:2734   */\n    tag_46:\n        /* \"#utility.yul\":2639:2645   */\n      0x00\n        /* \"#utility.yul\":2666:2686   */\n      tag_96\n      tag_39\n      jump\t// in\n    tag_96:\n        /* \"#utility.yul\":2656:2686   */\n      swap1\n      pop\n        /* \"#utility.yul\":2695:2728   */\n      tag_97\n        /* \"#utility.yul\":2723:2727   */\n      dup3\n        /* \"#utility.yul\":2715:2721   */\n      dup3\n        /* \"#utility.yul\":2695:2728   */\n      tag_45\n      jump\t// in\n    tag_97:\n        /* \"#utility.yul\":2605:2734   */\n      swap2\n      swap1\n      pop\n      jump\t// out\n        /* \"#utility.yul\":2740:3048   */\n    tag_47:\n        /* \"#utility.yul\":2802:2806   */\n      0x00\n        /* \"#utility.yul\":2892:2910   */\n      0xffffffffffffffff\n        /* \"#utility.yul\":2884:2890   */\n      dup3\n        /* \"#utility.yul\":2881:2911   */\n      gt\n        /* \"#utility.yul\":2878:2934   */\n      iszero\n      tag_99\n      jumpi\n        /* \"#utility.yul\":2914:2932   */\n      tag_100\n      tag_44\n      jump\t// in\n    tag_100:\n        /* \"#utility.yul\":2878:2934   */\n    tag_99:\n        /* \"#utility.yul\":2952:2981   */\n      tag_101\n        /* \"#utility.yul\":2974:2980   */\n      dup3\n        /* \"#utility.yul\":2952:2981   */\n      tag_35\n      jump\t// in\n    tag_101:\n        /* \"#utility.yul\":2944:2981   */\n      swap1\n      pop\n        /* \"#utility.yul\":3036:3040   */\n      0x20\n        /* \"#utility.yul\":3030:3034   */\n      dup2\n        /* \"#utility.yul\":3026:3041   */\n      add\n        /* \"#utility.yul\":3018:3041   */\n      swap1\n      pop\n        /* \"#utility.yul\":2740:3048   */\n      swap2\n      swap1\n      pop\n      jump\t// out\n        /* \"#utility.yul\":3054:3202   */\n    tag_48:\n        /* \"#utility.yul\":3152:3158   */\n      dup3\n        /* \"#utility.yul\":3147:3150   */\n      dup2\n        /* \"#utility.yul\":3142:3145   */\n      dup4\n        /* \"#utility.yul\":3129:3159   */\n      calldatacopy\n        /* \"#utility.yul\":3193:3194   */\n      0x00\n        /* \"#utility.yul\":3184:3190   */\n      dup4\n        /* \"#utility.yul\":3179:3182   */\n      dup4\n        /* \"#utility.yul\":3175:3191   */\n      add\n        /* \"#utility.yul\":3168:3195   */\n      mstore\n        /* \"#utility.yul\":3054:3202   */\n      pop\n      pop\n      pop\n      jump\t// out\n        /* \"#utility.yul\":3208:3633   */\n    tag_49:\n        /* \"#utility.yul\":3286:3291   */\n      0x00\n        /* \"#utility.yul\":3311:3377   */\n      tag_104\n        /* \"#utility.yul\":3327:3376   */\n      tag_105\n        /* \"#utility.yul\":3369:3375   */\n      dup5\n        /* \"#utility.yul\":3327:3376   */\n      tag_47\n      jump\t// in\n    tag_105:\n        /* \"#utility.yul\":3311:3377   */\n      tag_46\n      jump\t// in\n    tag_104:\n        /* \"#utility.yul\":3302:3377   */\n      swap1\n      pop\n        /* \"#utility.yul\":3400:3406   */\n      dup3\n        /* \"#utility.yul\":3393:3398   */\n      dup2\n        /* \"#utility.yul\":3386:3407   */\n      mstore\n        /* \"#utility.yul\":3438:3442   */\n      0x20\n        /* \"#utility.yul\":3431:3436   */\n      dup2\n        /* \"#utility.yul\":3427:3443   */\n      add\n        /* \"#utility.yul\":3476:3479   */\n      dup5\n        /* \"#utility.yul\":3467:3473   */\n      dup5\n        /* \"#utility.yul\":3462:3465   */\n      dup5\n        /* \"#utility.yul\":3458:3474   */\n      add\n        /* \"#utility.yul\":3455:3480   */\n      gt\n        /* \"#utility.yul\":3452:3564   */\n      iszero\n      tag_106\n      jumpi\n        /* \"#utility.yul\":3483:3562   */\n      tag_107\n      tag_43\n      jump\t// in\n    tag_107:\n        /* \"#utility.yul\":3452:3564   */\n    tag_106:\n        /* \"#utility.yul\":3573:3627   */\n      tag_108\n        /* \"#utility.yul\":3620:3626   */\n      dup5\n        /* \"#utility.yul\":3615:3618   */\n      dup3\n        /* \"#utility.yul\":3610:3613   */\n      dup6\n        /* \"#utility.yul\":3573:3627   */\n      tag_48\n      jump\t// in\n    tag_108:\n        /* \"#utility.yul\":3292:3633   */\n      pop\n        /* \"#utility.yul\":3208:3633   */\n      swap4\n      swap3\n      pop\n      pop\n      pop\n      jump\t// out\n        /* \"#utility.yul\":3653:3993   */\n    tag_50:\n        /* \"#utility.yul\":3709:3714   */\n      0x00\n        /* \"#utility.yul\":3758:3761   */\n      dup3\n        /* \"#utility.yul\":3751:3755   */\n      0x1f\n        /* \"#utility.yul\":3743:3749   */\n      dup4\n        /* \"#utility.yul\":3739:3756   */\n      add\n        /* \"#utility.yul\":3735:3762   */\n      slt\n        /* \"#utility.yul\":3725:3847   */\n      tag_110\n      jumpi\n        /* \"#utility.yul\":3766:3845   */\n      tag_111\n      tag_42\n      jump\t// in\n    tag_111:\n        /* \"#utility.yul\":3725:3847   */\n    tag_110:\n        /* \"#utility.yul\":3883:3889   */\n      dup2\n        /* \"#utility.yul\":3870:3890   */\n      calldataload\n        /* \"#utility.yul\":3908:3987   */\n      tag_112\n        /* \"#utility.yul\":3983:3986   */\n      dup5\n        /* \"#utility.yul\":3975:3981   */\n      dup3\n        /* \"#utility.yul\":3968:3972   */\n      0x20\n        /* \"#utility.yul\":3960:3966   */\n      dup7\n        /* \"#utility.yul\":3956:3973   */\n      add\n        /* \"#utility.yul\":3908:3987   */\n      tag_49\n      jump\t// in\n    tag_112:\n        /* \"#utility.yul\":3899:3987   */\n      swap2\n      pop\n        /* \"#utility.yul\":3715:3993   */\n      pop\n        /* \"#utility.yul\":3653:3993   */\n      swap3\n      swap2\n      pop\n      pop\n      jump\t// out\n        /* \"#utility.yul\":3999:4121   */\n    tag_51:\n        /* \"#utility.yul\":4072:4096   */\n      tag_114\n        /* \"#utility.yul\":4090:4095   */\n      dup2\n        /* \"#utility.yul\":4072:4096   */\n      tag_37\n      jump\t// in\n    tag_114:\n        /* \"#utility.yul\":4065:4070   */\n      dup2\n        /* \"#utility.yul\":4062:4097   */\n      eq\n        /* \"#utility.yul\":4052:4115   */\n      tag_115\n      jumpi\n        /* \"#utility.yul\":4111:4112   */\n      0x00\n        /* \"#utility.yul\":4108:4109   */\n      0x00\n        /* \"#utility.yul\":4101:4113   */\n      revert\n        /* \"#utility.yul\":4052:4115   */\n    tag_115:\n        /* \"#utility.yul\":3999:4121   */\n      pop\n      jump\t// out\n        /* \"#utility.yul\":4127:4266   */\n    tag_52:\n        /* \"#utility.yul\":4173:4178   */\n      0x00\n        /* \"#utility.yul\":4211:4217   */\n      dup2\n        /* \"#utility.yul\":4198:4218   */\n      calldataload\n        /* \"#utility.yul\":4189:4218   */\n      swap1\n      pop\n        /* \"#utility.yul\":4227:4260   */\n      tag_117\n        /* \"#utility.yul\":4254:4259   */\n      dup2\n        /* \"#utility.yul\":4227:4260   */\n      tag_51\n      jump\t// in\n    tag_117:\n        /* \"#utility.yul\":4127:4266   */\n      swap3\n      swap2\n      pop\n      pop\n      jump\t// out\n        /* \"#utility.yul\":4272:4926   */\n    tag_12:\n        /* \"#utility.yul\":4350:4356   */\n      0x00\n        /* \"#utility.yul\":4358:4364   */\n      0x00\n        /* \"#utility.yul\":4407:4409   */\n      0x40\n        /* \"#utility.yul\":4395:4404   */\n      dup4\n        /* \"#utility.yul\":4386:4393   */\n      dup6\n        /* \"#utility.yul\":4382:4405   */\n      sub\n        /* \"#utility.yul\":4378:4410   */\n      slt\n        /* \"#utility.yul\":4375:4494   */\n      iszero\n      tag_119\n      jumpi\n        /* \"#utility.yul\":4413:4492   */\n      tag_120\n      tag_40\n      jump\t// in\n    tag_120:\n        /* \"#utility.yul\":4375:4494   */\n    tag_119:\n        /* \"#utility.yul\":4561:4562   */\n      0x00\n        /* \"#utility.yul\":4550:4559   */\n      dup4\n        /* \"#utility.yul\":4546:4563   */\n      add\n        /* \"#utility.yul\":4533:4564   */\n      calldataload\n        /* \"#utility.yul\":4591:4609   */\n      0xffffffffffffffff\n        /* \"#utility.yul\":4583:4589   */\n      dup2\n        /* \"#utility.yul\":4580:4610   */\n      gt\n        /* \"#utility.yul\":4577:4694   */\n      iszero\n      tag_121\n      jumpi\n        /* \"#utility.yul\":4613:4692   */\n      tag_122\n      tag_41\n      jump\t// in\n    tag_122:\n        /* \"#utility.yul\":4577:4694   */\n    tag_121:\n        /* \"#utility.yul\":4718:4781   */\n      tag_123\n        /* \"#utility.yul\":4773:4780   */\n      dup6\n        /* \"#utility.yul\":4764:4770   */\n      dup3\n        /* \"#utility.yul\":4753:4762   */\n      dup7\n        /* \"#utility.yul\":4749:4771   */\n      add\n        /* \"#utility.yul\":4718:4781   */\n      tag_50\n      jump\t// in\n    tag_123:\n        /* \"#utility.yul\":4708:4781   */\n      swap3\n      pop\n        /* \"#utility.yul\":4504:4791   */\n      pop\n        /* \"#utility.yul\":4830:4832   */\n      0x20\n        /* \"#utility.yul\":4856:4909   */\n      tag_124\n        /* \"#utility.yul\":4901:4908   */\n      dup6\n        /* \"#utility.yul\":4892:4898   */\n      dup3\n        /* \"#utility.yul\":4881:4890   */\n      dup7\n        /* \"#utility.yul\":4877:4899   */\n      add\n        /* \"#utility.yul\":4856:4909   */\n      tag_52\n      jump\t// in\n    tag_124:\n        /* \"#utility.yul\":4846:4909   */\n      swap2\n      pop\n        /* \"#utility.yul\":4801:4919   */\n      pop\n        /* \"#utility.yul\":4272:4926   */\n      swap3\n      pop\n      swap3\n      swap1\n      pop\n      jump\t// out\n        /* \"#utility.yul\":4932:5112   */\n    tag_53:\n        /* \"#utility.yul\":4980:5057   */\n      0x4e487b7100000000000000000000000000000000000000000000000000000000\n        /* \"#utility.yul\":4977:4978   */\n      0x00\n        /* \"#utility.yul\":4970:5058   */\n      mstore\n        /* \"#utility.yul\":5077:5081   */\n      0x22\n        /* \"#utility.yul\":5074:5075   */\n      0x04\n        /* \"#utility.yul\":5067:5082   */\n      mstore\n        /* \"#utility.yul\":5101:5105   */\n      0x24\n        /* \"#utility.yul\":5098:5099   */\n      0x00\n        /* \"#utility.yul\":5091:5106   */\n      revert\n        /* \"#utility.yul\":5118:5438   */\n    tag_19:\n        /* \"#utility.yul\":5162:5168   */\n      0x00\n        /* \"#utility.yul\":5199:5200   */\n      0x02\n        /* \"#utility.yul\":5193:5197   */\n      dup3\n        /* \"#utility.yul\":5189:5201   */\n      div\n        /* \"#utility.yul\":5179:5201   */\n      swap1\n      pop\n        /* \"#utility.yul\":5246:5247   */\n      0x01\n        /* \"#utility.yul\":5240:5244   */\n      dup3\n        /* \"#utility.yul\":5236:5248   */\n      and\n        /* \"#utility.yul\":5267:5285   */\n      dup1\n        /* \"#utility.yul\":5257:5338   */\n      tag_127\n      jumpi\n        /* \"#utility.yul\":5323:5327   */\n      0x7f\n        /* \"#utility.yul\":5315:5321   */\n      dup3\n        /* \"#utility.yul\":5311:5328   */\n      and\n        /* \"#utility.yul\":5301:5328   */\n      swap2\n      pop\n        /* \"#utility.yul\":5257:5338   */\n    tag_127:\n        /* \"#utility.yul\":5385:5387   */\n      0x20\n        /* \"#utility.yul\":5377:5383   */\n      dup3\n        /* \"#utility.yul\":5374:5388   */\n      lt\n        /* \"#utility.yul\":5354:5372   */\n      dup2\n        /* \"#utility.yul\":5351:5389   */\n      sub\n        /* \"#utility.yul\":5348:5432   */\n      tag_128\n      jumpi\n        /* \"#utility.yul\":5404:5422   */\n      tag_129\n      tag_53\n      jump\t// in\n    tag_129:\n        /* \"#utility.yul\":5348:5432   */\n    tag_128:\n        /* \"#utility.yul\":5169:5438   */\n      pop\n        /* \"#utility.yul\":5118:5438   */\n      swap2\n      swap1\n      pop\n      jump\t// out\n        /* \"#utility.yul\":5444:5585   */\n    tag_54:\n        /* \"#utility.yul\":5493:5497   */\n      0x00\n        /* \"#utility.yul\":5516:5519   */\n      dup2\n        /* \"#utility.yul\":5508:5519   */\n      swap1\n      pop\n        /* \"#utility.yul\":5539:5542   */\n      dup2\n        /* \"#utility.yul\":5536:5537   */\n      0x00\n        /* \"#utility.yul\":5529:5543   */\n      mstore\n        /* \"#utility.yul\":5573:5577   */\n      0x20\n        /* \"#utility.yul\":5570:5571   */\n      0x00\n        /* \"#utility.yul\":5560:5578   */\n      keccak256\n        /* \"#utility.yul\":5552:5578   */\n      swap1\n      pop\n        /* \"#utility.yul\":5444:5585   */\n      swap2\n      swap1\n      pop\n      jump\t// out\n        /* \"#utility.yul\":5591:5684   */\n    tag_55:\n        /* \"#utility.yul\":5628:5634   */\n      0x00\n        /* \"#utility.yul\":5675:5677   */\n      0x20\n        /* \"#utility.yul\":5670:5672   */\n      0x1f\n        /* \"#utility.yul\":5663:5668   */\n      dup4\n        /* \"#utility.yul\":5659:5673   */\n      add\n        /* \"#utility.yul\":5655:5678   */\n      div\n        /* \"#utility.yul\":5645:5678   */\n      swap1\n      pop\n        /* \"#utility.yul\":5591:5684   */\n      swap2\n      swap1\n      pop\n      jump\t// out\n        /* \"#utility.yul\":5690:5797   */\n    tag_56:\n        /* \"#utility.yul\":5734:5742   */\n      0x00\n        /* \"#utility.yul\":5784:5789   */\n      dup3\n        /* \"#utility.yul\":5778:5782   */\n      dup3\n        /* \"#utility.yul\":5774:5790   */\n      shl\n        /* \"#utility.yul\":5753:5790   */\n      swap1\n      pop\n        /* \"#utility.yul\":5690:5797   */\n      swap3\n      swap2\n      pop\n      pop\n      jump\t// out\n        /* \"#utility.yul\":5803:6196   */\n    tag_57:\n        /* \"#utility.yul\":5872:5878   */\n      0x00\n        /* \"#utility.yul\":5922:5923   */\n      0x08\n        /* \"#utility.yul\":5910:5920   */\n      dup4\n        /* \"#utility.yul\":5906:5924   */\n      mul\n        /* \"#utility.yul\":5945:6042   */\n      tag_134\n        /* \"#utility.yul\":5975:6041   */\n      0xffffffffffffffffffffffffffffffffffffffffffffffffffffffffffffffff\n        /* \"#utility.yul\":5964:5973   */\n      dup3\n        /* \"#utility.yul\":5945:6042   */\n      tag_56\n      jump\t// in\n    tag_134:\n        /* \"#utility.yul\":6063:6102   */\n      tag_135\n        /* \"#utility.yul\":6093:6101   */\n      dup7\n        /* \"#utility.yul\":6082:6091   */\n      dup4\n        /* \"#utility.yul\":6063:6102   */\n      tag_56\n      jump\t// in\n    tag_135:\n        /* \"#utility.yul\":6051:6102   */\n      swap6\n      pop\n        /* \"#utility.yul\":6135:6139   */\n      dup1\n        /* \"#utility.yul\":6131:6140   */\n      not\n        /* \"#utility.yul\":6124:6129   */\n      dup5\n        /* \"#utility.yul\":6120:6141   */\n      and\n        /* \"#utility.yul\":6111:6141   */\n      swap4\n      pop\n        /* \"#utility.yul\":6184:6188   */\n      dup1\n        /* \"#utility.yul\":6174:6182   */\n      dup7\n        /* \"#utility.yul\":6170:6189   */\n      and\n        /* \"#utility.yul\":6163:6168   */\n      dup5\n        /* \"#utility.yul\":6160:6190   */\n      or\n        /* \"#utility.yul\":6150:6190   */\n      swap3\n      pop\n        /* \"#utility.yul\":5879:6196   */\n      pop\n      pop\n        /* \"#utility.yul\":5803:6196   */\n      swap4\n      swap3\n      pop\n      pop\n      pop\n      jump\t// out\n        /* \"#utility.yul\":6202:6262   */\n    tag_58:\n        /* \"#utility.yul\":6230:6233   */\n      0x00\n        /* \"#utility.yul\":6251:6256   */\n      dup2\n        /* \"#utility.yul\":6244:6256   */\n      swap1\n      pop\n        /* \"#utility.yul\":6202:6262   */\n      swap2\n      swap1\n      pop\n      jump\t// out\n        /* \"#utility.yul\":6268:6410   */\n    tag_59:\n        /* \"#utility.yul\":6318:6327   */\n      0x00\n        /* \"#utility.yul\":6351:6404   */\n      tag_138\n        /* \"#utility.yul\":6369:6403   */\n      tag_139\n        /* \"#utility.yul\":6378:6402   */\n      tag_140\n        /* \"#utility.yul\":6396:6401   */\n      dup5\n        /* \"#utility.yul\":6378:6402   */\n      tag_37\n      jump\t// in\n    tag_140:\n        /* \"#utility.yul\":6369:6403   */\n      tag_58\n      jump\t// in\n    tag_139:\n        /* \"#utility.yul\":6351:6404   */\n      tag_37\n      jump\t// in\n    tag_138:\n        /* \"#utility.yul\":6338:6404   */\n      swap1\n      pop\n        /* \"#utility.yul\":6268:6410   */\n      swap2\n      swap1\n      pop\n      jump\t// out\n        /* \"#utility.yul\":6416:6491   */\n    tag_60:\n        /* \"#utility.yul\":6459:6462   */\n      0x00\n        /* \"#utility.yul\":6480:6485   */\n      dup2\n        /* \"#utility.yul\":6473:6485   */\n      swap1\n      pop\n        /* \"#utility.yul\":6416:6491   */\n      swap2\n      swap1\n      pop\n      jump\t// out\n        /* \"#utility.yul\":6497:6766   */\n    tag_61:\n        /* \"#utility.yul\":6607:6646   */\n      tag_143\n        /* \"#utility.yul\":6638:6645   */\n      dup4\n        /* \"#utility.yul\":6607:6646   */\n      tag_59\n      jump\t// in\n    tag_143:\n        /* \"#utility.yul\":6668:6759   */\n      tag_144\n        /* \"#utility.yul\":6717:6758   */\n      tag_145\n        /* \"#utility.yul\":6741:6757   */\n      dup3\n        /* \"#utility.yul\":6717:6758   */\n      tag_60\n      jump\t// in\n    tag_145:\n        /* \"#utility.yul\":6709:6715   */\n      dup5\n        /* \"#utility.yul\":6702:6706   */\n      dup5\n        /* \"#utility.yul\":6696:6707   */\n      sload\n        /* \"#utility.yul\":6668:6759   */\n      tag_57\n      jump\t// in\n    tag_144:\n        /* \"#utility.yul\":6662:6666   */\n      dup3\n        /* \"#utility.yul\":6655:6760   */\n      sstore\n        /* \"#utility.yul\":6573:6766   */\n      pop\n        /* \"#utility.yul\":6497:6766   */\n      pop\n      pop\n      pop\n      jump\t// out\n        /* \"#utility.yul\":6772:6845   */\n    tag_62:\n        /* \"#utility.yul\":6817:6820   */\n      0x00\n        /* \"#utility.yul\":6838:6839   */\n      0x00\n        /* \"#utility.yul\":6831:6839   */\n      swap1\n      pop\n        /* \"#utility.yul\":6772:6845   */\n      swap1\n      jump\t// out\n        /* \"#utility.yul\":6851:7040   */\n    tag_63:\n        /* \"#utility.yul\":6928:6960   */\n      tag_148\n      tag_62\n      jump\t// in\n    tag_148:\n        /* \"#utility.yul\":6969:7034   */\n      tag_149\n        /* \"#utility.yul\":7027:7033   */\n      dup2\n        /* \"#utility.yul\":7019:7025   */\n      dup5\n        /* \"#utility.yul\":7013:7017   */\n      dup5\n        /* \"#utility.yul\":6969:7034   */\n      tag_61\n      jump\t// in\n    tag_149:\n        /* \"#utility.yul\":6904:7040   */\n      pop\n        /* \"#utility.yul\":6851:7040   */\n      pop\n      pop\n      jump\t// out\n        /* \"#utility.yul\":7046:7232   */\n    tag_64:\n        /* \"#utility.yul\":7106:7226   */\n    tag_151:\n        /* \"#utility.yul\":7123:7126   */\n      dup2\n        /* \"#utility.yul\":7116:7121   */\n      dup2\n        /* \"#utility.yul\":7113:7127   */\n      lt\n        /* \"#utility.yul\":7106:7226   */\n      iszero\n      tag_153\n      jumpi\n        /* \"#utility.yul\":7177:7216   */\n      tag_154\n        /* \"#utility.yul\":7214:7215   */\n      0x00\n        /* \"#utility.yul\":7207:7212   */\n      dup3\n        /* \"#utility.yul\":7177:7216   */\n      tag_63\n      jump\t// in\n    tag_154:\n        /* \"#utility.yul\":7150:7151   */\n      0x01\n        /* \"#utility.yul\":7143:7148   */\n      dup2\n        /* \"#utility.yul\":7139:7152   */\n      add\n        /* \"#utility.yul\":7130:7152   */\n      swap1\n      pop\n        /* \"#utility.yul\":7106:7226   */\n      jump(tag_151)\n    tag_153:\n        /* \"#utility.yul\":7046:7232   */\n      pop\n      pop\n      jump\t// out\n        /* \"#utility.yul\":7238:7781   */\n    tag_65:\n        /* \"#utility.yul\":7339:7341   */\n      0x1f\n        /* \"#utility.yul\":7334:7337   */\n      dup3\n        /* \"#utility.yul\":7331:7342   */\n      gt\n        /* \"#utility.yul\":7328:7774   */\n      iszero\n      tag_156\n      jumpi\n        /* \"#utility.yul\":7373:7411   */\n      tag_157\n        /* \"#utility.yul\":7405:7410   */\n      dup2\n        /* \"#utility.yul\":7373:7411   */\n      tag_54\n      jump\t// in\n    tag_157:\n        /* \"#utility.yul\":7457:7486   */\n      tag_158\n        /* \"#utility.yul\":7475:7485   */\n      dup5\n        /* \"#utility.yul\":7457:7486   */\n      tag_55\n      jump\t// in\n    tag_158:\n        /* \"#utility.yul\":7447:7455   */\n      dup2\n        /* \"#utility.yul\":7443:7487   */\n      add\n        /* \"#utility.yul\":7640:7642   */\n      0x20\n        /* \"#utility.yul\":7628:7638   */\n      dup6\n        /* \"#utility.yul\":7625:7643   */\n      lt\n        /* \"#utility.yul\":7622:7671   */\n      iszero\n      tag_159\n      jumpi\n        /* \"#utility.yul\":7661:7669   */\n      dup2\n        /* \"#utility.yul\":7646:7669   */\n      swap1\n      pop\n        /* \"#utility.yul\":7622:7671   */\n    tag_159:\n        /* \"#utility.yul\":7684:7764   */\n      tag_160\n        /* \"#utility.yul\":7740:7762   */\n      tag_161\n        /* \"#utility.yul\":7758:7761   */\n      dup6\n        /* \"#utility.yul\":7740:7762   */\n      tag_55\n      jump\t// in\n    tag_161:\n        /* \"#utility.yul\":7730:7738   */\n      dup4\n        /* \"#utility.yul\":7726:7763   */\n      add\n        /* \"#utility.yul\":7713:7724   */\n      dup3\n        /* \"#utility.yul\":7684:7764   */\n      tag_64\n      jump\t// in\n    tag_160:\n        /* \"#utility.yul\":7343:7774   */\n      pop\n      pop\n        /* \"#utility.yul\":7328:7774   */\n    tag_156:\n        /* \"#utility.yul\":7238:7781   */\n      pop\n      pop\n      pop\n      jump\t// out\n        /* \"#utility.yul\":7787:7904   */\n    tag_66:\n        /* \"#utility.yul\":7841:7849   */\n      0x00\n        /* \"#utility.yul\":7891:7896   */\n      dup3\n        /* \"#utility.yul\":7885:7889   */\n      dup3\n        /* \"#utility.yul\":7881:7897   */\n      shr\n        /* \"#utility.yul\":7860:7897   */\n      swap1\n      pop\n        /* \"#utility.yul\":7787:7904   */\n      swap3\n      swap2\n      pop\n      pop\n      jump\t// out\n        /* \"#utility.yul\":7910:8079   */\n    tag_67:\n        /* \"#utility.yul\":7954:7960   */\n      0x00\n        /* \"#utility.yul\":7987:8038   */\n      tag_164\n        /* \"#utility.yul\":8035:8036   */\n      0x00\n        /* \"#utility.yul\":8031:8037   */\n      not\n        /* \"#utility.yul\":8023:8028   */\n      dup5\n        /* \"#utility.yul\":8020:8021   */\n      0x08\n        /* \"#utility.yul\":8016:8029   */\n      mul\n        /* \"#utility.yul\":7987:8038   */\n      tag_66\n      jump\t// in\n    tag_164:\n        /* \"#utility.yul\":7983:8039   */\n      not\n        /* \"#utility.yul\":8068:8072   */\n      dup1\n        /* \"#utility.yul\":8062:8066   */\n      dup4\n        /* \"#utility.yul\":8058:8073   */\n      and\n        /* \"#utility.yul\":8048:8073   */\n      swap2\n      pop\n        /* \"#utility.yul\":7961:8079   */\n      pop\n        /* \"#utility.yul\":7910:8079   */\n      swap3\n      swap2\n      pop\n      pop\n      jump\t// out\n        /* \"#utility.yul\":8084:8379   */\n    tag_68:\n        /* \"#utility.yul\":8160:8164   */\n      0x00\n        /* \"#utility.yul\":8306:8335   */\n      tag_166\n        /* \"#utility.yul\":8331:8334   */\n      dup4\n        /* \"#utility.yul\":8325:8329   */\n      dup4\n        /* \"#utility.yul\":8306:8335   */\n      tag_67\n      jump\t// in\n    tag_166:\n        /* \"#utility.yul\":8298:8335   */\n      swap2\n      pop\n        /* \"#utility.yul\":8368:8371   */\n      dup3\n        /* \"#utility.yul\":8365:8366   */\n      0x02\n        /* \"#utility.yul\":8361:8372   */\n      mul\n        /* \"#utility.yul\":8355:8359   */\n      dup3\n        /* \"#utility.yul\":8352:8373   */\n      or\n        /* \"#utility.yul\":8344:8373   */\n      swap1\n      pop\n        /* \"#utility.yul\":8084:8379   */\n      swap3\n      swap2\n      pop\n      pop\n      jump\t// out\n        /* \"#utility.yul\":8384:9779   */\n    tag_26:\n        /* \"#utility.yul\":8501:8538   */\n      tag_168\n        /* \"#utility.yul\":8534:8537   */\n      dup3\n        /* \"#utility.yul\":8501:8538   */\n      tag_32\n      jump\t// in\n    tag_168:\n        /* \"#utility.yul\":8603:8621   */\n      0xffffffffffffffff\n        /* \"#utility.yul\":8595:8601   */\n      dup2\n        /* \"#utility.yul\":8592:8622   */\n      gt\n        /* \"#utility.yul\":8589:8645   */\n      iszero\n      tag_169\n      jumpi\n        /* \"#utility.yul\":8625:8643   */\n      tag_170\n      tag_44\n      jump\t// in\n    tag_170:\n        /* \"#utility.yul\":8589:8645   */\n    tag_169:\n        /* \"#utility.yul\":8669:8707   */\n      tag_171\n        /* \"#utility.yul\":8701:8705   */\n      dup3\n        /* \"#utility.yul\":8695:8706   */\n      sload\n        /* \"#utility.yul\":8669:8707   */\n      tag_19\n      jump\t// in\n    tag_171:\n        /* \"#utility.yul\":8754:8821   */\n      tag_172\n        /* \"#utility.yul\":8814:8820   */\n      dup3\n        /* \"#utility.yul\":8806:8812   */\n      dup3\n        /* \"#utility.yul\":8800:8804   */\n      dup6\n        /* \"#utility.yul\":8754:8821   */\n      tag_65\n      jump\t// in\n    tag_172:\n        /* \"#utility.yul\":8848:8849   */\n      0x00\n        /* \"#utility.yul\":8872:8876   */\n      0x20\n        /* \"#utility.yul\":8859:8876   */\n      swap1\n      pop\n        /* \"#utility.yul\":8904:8906   */\n      0x1f\n        /* \"#utility.yul\":8896:8902   */\n      dup4\n        /* \"#utility.yul\":8893:8907   */\n      gt\n        /* \"#utility.yul\":8921:8922   */\n      0x01\n        /* \"#utility.yul\":8916:9534   */\n      dup2\n      eq\n      tag_174\n      jumpi\n        /* \"#utility.yul\":9578:9579   */\n      0x00\n        /* \"#utility.yul\":9595:9601   */\n      dup5\n        /* \"#utility.yul\":9592:9669   */\n      iszero\n      tag_175\n      jumpi\n        /* \"#utility.yul\":9644:9653   */\n      dup3\n        /* \"#utility.yul\":9639:9642   */\n      dup8\n        /* \"#utility.yul\":9635:9654   */\n      add\n        /* \"#utility.yul\":9629:9655   */\n      mload\n        /* \"#utility.yul\":9620:9655   */\n      swap1\n      pop\n        /* \"#utility.yul\":9592:9669   */\n    tag_175:\n        /* \"#utility.yul\":9695:9762   */\n      tag_176\n        /* \"#utility.yul\":9755:9761   */\n      dup6\n        /* \"#utility.yul\":9748:9753   */\n      dup3\n        /* \"#utility.yul\":9695:9762   */\n      tag_68\n      jump\t// in\n    tag_176:\n        /* \"#utility.yul\":9689:9693   */\n      dup7\n        /* \"#utility.yul\":9682:9763   */\n      sstore\n        /* \"#utility.yul\":9551:9773   */\n      pop\n        /* \"#utility.yul\":8886:9773   */\n      jump(tag_173)\n        /* \"#utility.yul\":8916:9534   */\n    tag_174:\n        /* \"#utility.yul\":8968:8972   */\n      0x1f\n        /* \"#utility.yul\":8964:8973   */\n      not\n        /* \"#utility.yul\":8956:8962   */\n      dup5\n        /* \"#utility.yul\":8952:8974   */\n      and\n        /* \"#utility.yul\":9002:9039   */\n      tag_177\n        /* \"#utility.yul\":9034:9038   */\n      dup7\n        /* \"#utility.yul\":9002:9039   */\n      tag_54\n      jump\t// in\n    tag_177:\n        /* \"#utility.yul\":9061:9062   */\n      0x00\n        /* \"#utility.yul\":9075:9283   */\n    tag_178:\n        /* \"#utility.yul\":9089:9096   */\n      dup3\n        /* \"#utility.yul\":9086:9087   */\n      dup2\n        /* \"#utility.yul\":9083:9097   */\n      lt\n        /* \"#utility.yul\":9075:9283   */\n      iszero\n      tag_180\n      jumpi\n        /* \"#utility.yul\":9168:9177   */\n      dup5\n        /* \"#utility.yul\":9163:9166   */\n      dup10\n        /* \"#utility.yul\":9159:9178   */\n      add\n        /* \"#utility.yul\":9153:9179   */\n      mload\n        /* \"#utility.yul\":9145:9151   */\n      dup3\n        /* \"#utility.yul\":9138:9180   */\n      sstore\n        /* \"#utility.yul\":9219:9220   */\n      0x01\n        /* \"#utility.yul\":9211:9217   */\n      dup3\n        /* \"#utility.yul\":9207:9221   */\n      add\n        /* \"#utility.yul\":9197:9221   */\n      swap2\n      pop\n        /* \"#utility.yul\":9266:9268   */\n      0x20\n        /* \"#utility.yul\":9255:9264   */\n      dup6\n        /* \"#utility.yul\":9251:9269   */\n      add\n        /* \"#utility.yul\":9238:9269   */\n      swap5\n      pop\n        /* \"#utility.yul\":9112:9116   */\n      0x20\n        /* \"#utility.yul\":9109:9110   */\n      dup2\n        /* \"#utility.yul\":9105:9117   */\n      add\n        /* \"#utility.yul\":9100:9117   */\n      swap1\n      pop\n        /* \"#utility.yul\":9075:9283   */\n      jump(tag_178)\n    tag_180:\n        /* \"#utility.yul\":9311:9317   */\n      dup7\n        /* \"#utility.yul\":9302:9309   */\n      dup4\n        /* \"#utility.yul\":9299:9318   */\n      lt\n        /* \"#utility.yul\":9296:9475   */\n      iszero\n      tag_181\n      jumpi\n        /* \"#utility.yul\":9369:9378   */\n      dup5\n        /* \"#utility.yul\":9364:9367   */\n      dup10\n        /* \"#utility.yul\":9360:9379   */\n      add\n        /* \"#utility.yul\":9354:9380   */\n      mload\n        /* \"#utility.yul\":9412:9460   */\n      tag_182\n        /* \"#utility.yul\":9454:9458   */\n      0x1f\n        /* \"#utility.yul\":9446:9452   */\n      dup10\n        /* \"#utility.yul\":9442:9459   */\n      and\n        /* \"#utility.yul\":9431:9440   */\n      dup3\n        /* \"#utility.yul\":9412:9460   */\n      tag_67\n      jump\t// in\n    tag_182:\n        /* \"#utility.yul\":9404:9410   */\n      dup4\n        /* \"#utility.yul\":9397:9461   */\n      sstore\n        /* \"#utility.yul\":9319:9475   */\n      pop\n        /* \"#utility.yul\":9296:9475   */\n    tag_181:\n        /* \"#utility.yul\":9521:9522   */\n      0x01\n        /* \"#utility.yul\":9517:9518   */\n      0x02\n        /* \"#utility.yul\":9509:9515   */\n      dup9\n        /* \"#utility.yul\":9505:9519   */\n      mul\n        /* \"#utility.yul\":9501:9523   */\n      add\n        /* \"#utility.yul\":9495:9499   */\n      dup9\n        /* \"#utility.yul\":9488:9524   */\n      sstore\n        /* \"#utility.yul\":8923:9534   */\n      pop\n      pop\n      pop\n        /* \"#utility.yul\":8886:9773   */\n    tag_173:\n      pop\n        /* \"#utility.yul\":8476:9779   */\n      pop\n      pop\n      pop\n        /* \"#utility.yul\":8384:9779   */\n      pop\n      pop\n      jump\t// out\n\n    auxdata: 0xa2646970667358221220c0fc227a66b82dca9e4759f7ba563a7fd7740effad24f3b63973b9f1d80d2b9b64736f6c634300081e0033\n}\n",
				"bytecode": {
					"linkReferences": {},
					"object": "6080604052348015600e575f5ffd5b506107848061001c5f395ff3fe608060405234801561000f575f5ffd5b506004361061003f575f3560e01c806370485b2b1461004357806381cf40b714610062578063846150391461007e575b5f5ffd5b61004b61009d565b604051610059929190610293565b60405180910390f35b61007c60048036038101906100779190610428565b61013a565b005b610086610175565b604051610094929190610293565b60405180910390f35b60605f5f5f015f600101548180546100b4906104af565b80601f01602080910402602001604051908101604052809291908181526020018280546100e0906104af565b801561012b5780601f106101025761010080835404028352916020019161012b565b820191905f5260205f20905b81548152906001019060200180831161010e57829003601f168201915b50505050509150915091509091565b6040518060400160405280838152602001828152505f5f820151815f019081610163919061067f565b50602082015181600101559050505050565b5f805f018054610184906104af565b80601f01602080910402602001604051908101604052809291908181526020018280546101b0906104af565b80156101fb5780601f106101d2576101008083540402835291602001916101fb565b820191905f5260205f20905b8154815290600101906020018083116101de57829003601f168201915b5050505050908060010154905082565b5f81519050919050565b5f82825260208201905092915050565b8281835e5f83830152505050565b5f601f19601f8301169050919050565b5f61024d8261020b565b6102578185610215565b9350610267818560208601610225565b61027081610233565b840191505092915050565b5f819050919050565b61028d8161027b565b82525050565b5f6040820190508181035f8301526102ab8185610243565b90506102ba6020830184610284565b9392505050565b5f604051905090565b5f5ffd5b5f5ffd5b5f5ffd5b5f5ffd5b7f4e487b71000000000000000000000000000000000000000000000000000000005f52604160045260245ffd5b61031082610233565b810181811067ffffffffffffffff8211171561032f5761032e6102da565b5b80604052505050565b5f6103416102c1565b905061034d8282610307565b919050565b5f67ffffffffffffffff82111561036c5761036b6102da565b5b61037582610233565b9050602081019050919050565b828183375f83830152505050565b5f6103a261039d84610352565b610338565b9050828152602081018484840111156103be576103bd6102d6565b5b6103c9848285610382565b509392505050565b5f82601f8301126103e5576103e46102d2565b5b81356103f5848260208601610390565b91505092915050565b6104078161027b565b8114610411575f5ffd5b50565b5f81359050610422816103fe565b92915050565b5f5f6040838503121561043e5761043d6102ca565b5b5f83013567ffffffffffffffff81111561045b5761045a6102ce565b5b610467858286016103d1565b925050602061047885828601610414565b9150509250929050565b7f4e487b71000000000000000000000000000000000000000000000000000000005f52602260045260245ffd5b5f60028204905060018216806104c657607f821691505b6020821081036104d9576104d8610482565b5b50919050565b5f819050815f5260205f209050919050565b5f6020601f8301049050919050565b5f82821b905092915050565b5f6008830261053b7fffffffffffffffffffffffffffffffffffffffffffffffffffffffffffffffff82610500565b6105458683610500565b95508019841693508086168417925050509392505050565b5f819050919050565b5f61058061057b6105768461027b565b61055d565b61027b565b9050919050565b5f819050919050565b61059983610566565b6105ad6105a582610587565b84845461050c565b825550505050565b5f5f905090565b6105c46105b5565b6105cf818484610590565b505050565b5b818110156105f2576105e75f826105bc565b6001810190506105d5565b5050565b601f82111561063757610608816104df565b610611846104f1565b81016020851015610620578190505b61063461062c856104f1565b8301826105d4565b50505b505050565b5f82821c905092915050565b5f6106575f198460080261063c565b1980831691505092915050565b5f61066f8383610648565b9150826002028217905092915050565b6106888261020b565b67ffffffffffffffff8111156106a1576106a06102da565b5b6106ab82546104af565b6106b68282856105f6565b5f60209050601f8311600181146106e7575f84156106d5578287015190505b6106df8582610664565b865550610746565b601f1984166106f5866104df565b5f5b8281101561071c578489015182556001820191506020850194506020810190506106f7565b868310156107395784890151610735601f891682610648565b8355505b6001600288020188555050505b50505050505056fea2646970667358221220c0fc227a66b82dca9e4759f7ba563a7fd7740effad24f3b63973b9f1d80d2b9b64736f6c634300081e0033",
					"opcodes": "PUSH1 0x80 PUSH1 0x40 MSTORE CALLVALUE DUP1 ISZERO PUSH1 0xE JUMPI PUSH0 PUSH0 REVERT JUMPDEST POP PUSH2 0x784 DUP1 PUSH2 0x1C PUSH0 CODECOPY PUSH0 RETURN INVALID PUSH1 0x80 PUSH1 0x40 MSTORE CALLVALUE DUP1 ISZERO PUSH2 0xF JUMPI PUSH0 PUSH0 REVERT JUMPDEST POP PUSH1 0x4 CALLDATASIZE LT PUSH2 0x3F JUMPI PUSH0 CALLDATALOAD PUSH1 0xE0 SHR DUP1 PUSH4 0x70485B2B EQ PUSH2 0x43 JUMPI DUP1 PUSH4 0x81CF40B7 EQ PUSH2 0x62 JUMPI DUP1 PUSH4 0x84615039 EQ PUSH2 0x7E JUMPI JUMPDEST PUSH0 PUSH0 REVERT JUMPDEST PUSH2 0x4B PUSH2 0x9D JUMP JUMPDEST PUSH1 0x40 MLOAD PUSH2 0x59 SWAP3 SWAP2 SWAP1 PUSH2 0x293 JUMP JUMPDEST PUSH1 0x40 MLOAD DUP1 SWAP2 SUB SWAP1 RETURN JUMPDEST PUSH2 0x7C PUSH1 0x4 DUP1 CALLDATASIZE SUB DUP2 ADD SWAP1 PUSH2 0x77 SWAP2 SWAP1 PUSH2 0x428 JUMP JUMPDEST PUSH2 0x13A JUMP JUMPDEST STOP JUMPDEST PUSH2 0x86 PUSH2 0x175 JUMP JUMPDEST PUSH1 0x40 MLOAD PUSH2 0x94 SWAP3 SWAP2 SWAP1 PUSH2 0x293 JUMP JUMPDEST PUSH1 0x40 MLOAD DUP1 SWAP2 SUB SWAP1 RETURN JUMPDEST PUSH1 0x60 PUSH0 PUSH0 PUSH0 ADD PUSH0 PUSH1 0x1 ADD SLOAD DUP2 DUP1 SLOAD PUSH2 0xB4 SWAP1 PUSH2 0x4AF JUMP JUMPDEST DUP1 PUSH1 0x1F ADD PUSH1 0x20 DUP1 SWAP2 DIV MUL PUSH1 0x20 ADD PUSH1 0x40 MLOAD SWAP1 DUP2 ADD PUSH1 0x40 MSTORE DUP1 SWAP3 SWAP2 SWAP1 DUP2 DUP2 MSTORE PUSH1 0x20 ADD DUP3 DUP1 SLOAD PUSH2 0xE0 SWAP1 PUSH2 0x4AF JUMP JUMPDEST DUP1 ISZERO PUSH2 0x12B JUMPI DUP1 PUSH1 0x1F LT PUSH2 0x102 JUMPI PUSH2 0x100 DUP1 DUP4 SLOAD DIV MUL DUP4 MSTORE SWAP2 PUSH1 0x20 ADD SWAP2 PUSH2 0x12B JUMP JUMPDEST DUP3 ADD SWAP2 SWAP1 PUSH0 MSTORE PUSH1 0x20 PUSH0 KECCAK256 SWAP1 JUMPDEST DUP2 SLOAD DUP2 MSTORE SWAP1 PUSH1 0x1 ADD SWAP1 PUSH1 0x20 ADD DUP1 DUP4 GT PUSH2 0x10E JUMPI DUP3 SWAP1 SUB PUSH1 0x1F AND DUP3 ADD SWAP2 JUMPDEST POP POP POP POP POP SWAP2 POP SWAP2 POP SWAP2 POP SWAP1 SWAP2 JUMP JUMPDEST PUSH1 0x40 MLOAD DUP1 PUSH1 0x40 ADD PUSH1 0x40 MSTORE DUP1 DUP4 DUP2 MSTORE PUSH1 0x20 ADD DUP3 DUP2 MSTORE POP PUSH0 PUSH0 DUP3 ADD MLOAD DUP2 PUSH0 ADD SWAP1 DUP2 PUSH2 0x163 SWAP2 SWAP1 PUSH2 0x67F JUMP JUMPDEST POP PUSH1 0x20 DUP3 ADD MLOAD DUP2 PUSH1 0x1 ADD SSTORE SWAP1 POP POP POP POP JUMP JUMPDEST PUSH0 DUP1 PUSH0 ADD DUP1 SLOAD PUSH2 0x184 SWAP1 PUSH2 0x4AF JUMP JUMPDEST DUP1 PUSH1 0x1F ADD PUSH1 0x20 DUP1 SWAP2 DIV MUL PUSH1 0x20 ADD PUSH1 0x40 MLOAD SWAP1 DUP2 ADD PUSH1 0x40 MSTORE DUP1 SWAP3 SWAP2 SWAP1 DUP2 DUP2 MSTORE PUSH1 0x20 ADD DUP3 DUP1 SLOAD PUSH2 0x1B0 SWAP1 PUSH2 0x4AF JUMP JUMPDEST DUP1 ISZERO PUSH2 0x1FB JUMPI DUP1 PUSH1 0x1F LT PUSH2 0x1D2 JUMPI PUSH2 0x100 DUP1 DUP4 SLOAD DIV MUL DUP4 MSTORE SWAP2 PUSH1 0x20 ADD SWAP2 PUSH2 0x1FB JUMP JUMPDEST DUP3 ADD SWAP2 SWAP1 PUSH0 MSTORE PUSH1 0x20 PUSH0 KECCAK256 SWAP1 JUMPDEST DUP2 SLOAD DUP2 MSTORE SWAP1 PUSH1 0x1 ADD SWAP1 PUSH1 0x20 ADD DUP1 DUP4 GT PUSH2 0x1DE JUMPI DUP3 SWAP1 SUB PUSH1 0x1F AND DUP3 ADD SWAP2 JUMPDEST POP POP POP POP POP SWAP1 DUP1 PUSH1 0x1 ADD SLOAD SWAP1 POP DUP3 JUMP JUMPDEST PUSH0 DUP2 MLOAD SWAP1 POP SWAP2 SWAP1 POP JUMP JUMPDEST PUSH0 DUP3 DUP3 MSTORE PUSH1 0x20 DUP3 ADD SWAP1 POP SWAP3 SWAP2 POP POP JUMP JUMPDEST DUP3 DUP2 DUP4 MCOPY PUSH0 DUP4 DUP4 ADD MSTORE POP POP POP JUMP JUMPDEST PUSH0 PUSH1 0x1F NOT PUSH1 0x1F DUP4 ADD AND SWAP1 POP SWAP2 SWAP1 POP JUMP JUMPDEST PUSH0 PUSH2 0x24D DUP3 PUSH2 0x20B JUMP JUMPDEST PUSH2 0x257 DUP2 DUP6 PUSH2 0x215 JUMP JUMPDEST SWAP4 POP PUSH2 0x267 DUP2 DUP6 PUSH1 0x20 DUP7 ADD PUSH2 0x225 JUMP JUMPDEST PUSH2 0x270 DUP2 PUSH2 0x233 JUMP JUMPDEST DUP5 ADD SWAP2 POP POP SWAP3 SWAP2 POP POP JUMP JUMPDEST PUSH0 DUP2 SWAP1 POP SWAP2 SWAP1 POP JUMP JUMPDEST PUSH2 0x28D DUP2 PUSH2 0x27B JUMP JUMPDEST DUP3 MSTORE POP POP JUMP JUMPDEST PUSH0 PUSH1 0x40 DUP3 ADD SWAP1 POP DUP2 DUP2 SUB PUSH0 DUP4 ADD MSTORE PUSH2 0x2AB DUP2 DUP6 PUSH2 0x243 JUMP JUMPDEST SWAP1 POP PUSH2 0x2BA PUSH1 0x20 DUP4 ADD DUP5 PUSH2 0x284 JUMP JUMPDEST SWAP4 SWAP3 POP POP POP JUMP JUMPDEST PUSH0 PUSH1 0x40 MLOAD SWAP1 POP SWAP1 JUMP JUMPDEST PUSH0 PUSH0 REVERT JUMPDEST PUSH0 PUSH0 REVERT JUMPDEST PUSH0 PUSH0 REVERT JUMPDEST PUSH0 PUSH0 REVERT JUMPDEST PUSH32 0x4E487B7100000000000000000000000000000000000000000000000000000000 PUSH0 MSTORE PUSH1 0x41 PUSH1 0x4 MSTORE PUSH1 0x24 PUSH0 REVERT JUMPDEST PUSH2 0x310 DUP3 PUSH2 0x233 JUMP JUMPDEST DUP2 ADD DUP2 DUP2 LT PUSH8 0xFFFFFFFFFFFFFFFF DUP3 GT OR ISZERO PUSH2 0x32F JUMPI PUSH2 0x32E PUSH2 0x2DA JUMP JUMPDEST JUMPDEST DUP1 PUSH1 0x40 MSTORE POP POP POP JUMP JUMPDEST PUSH0 PUSH2 0x341 PUSH2 0x2C1 JUMP JUMPDEST SWAP1 POP PUSH2 0x34D DUP3 DUP3 PUSH2 0x307 JUMP JUMPDEST SWAP2 SWAP1 POP JUMP JUMPDEST PUSH0 PUSH8 0xFFFFFFFFFFFFFFFF DUP3 GT ISZERO PUSH2 0x36C JUMPI PUSH2 0x36B PUSH2 0x2DA JUMP JUMPDEST JUMPDEST PUSH2 0x375 DUP3 PUSH2 0x233 JUMP JUMPDEST SWAP1 POP PUSH1 0x20 DUP2 ADD SWAP1 POP SWAP2 SWAP1 POP JUMP JUMPDEST DUP3 DUP2 DUP4 CALLDATACOPY PUSH0 DUP4 DUP4 ADD MSTORE POP POP POP JUMP JUMPDEST PUSH0 PUSH2 0x3A2 PUSH2 0x39D DUP5 PUSH2 0x352 JUMP JUMPDEST PUSH2 0x338 JUMP JUMPDEST SWAP1 POP DUP3 DUP2 MSTORE PUSH1 0x20 DUP2 ADD DUP5 DUP5 DUP5 ADD GT ISZERO PUSH2 0x3BE JUMPI PUSH2 0x3BD PUSH2 0x2D6 JUMP JUMPDEST JUMPDEST PUSH2 0x3C9 DUP5 DUP3 DUP6 PUSH2 0x382 JUMP JUMPDEST POP SWAP4 SWAP3 POP POP POP JUMP JUMPDEST PUSH0 DUP3 PUSH1 0x1F DUP4 ADD SLT PUSH2 0x3E5 JUMPI PUSH2 0x3E4 PUSH2 0x2D2 JUMP JUMPDEST JUMPDEST DUP2 CALLDATALOAD PUSH2 0x3F5 DUP5 DUP3 PUSH1 0x20 DUP7 ADD PUSH2 0x390 JUMP JUMPDEST SWAP2 POP POP SWAP3 SWAP2 POP POP JUMP JUMPDEST PUSH2 0x407 DUP2 PUSH2 0x27B JUMP JUMPDEST DUP2 EQ PUSH2 0x411 JUMPI PUSH0 PUSH0 REVERT JUMPDEST POP JUMP JUMPDEST PUSH0 DUP2 CALLDATALOAD SWAP1 POP PUSH2 0x422 DUP2 PUSH2 0x3FE JUMP JUMPDEST SWAP3 SWAP2 POP POP JUMP JUMPDEST PUSH0 PUSH0 PUSH1 0x40 DUP4 DUP6 SUB SLT ISZERO PUSH2 0x43E JUMPI PUSH2 0x43D PUSH2 0x2CA JUMP JUMPDEST JUMPDEST PUSH0 DUP4 ADD CALLDATALOAD PUSH8 0xFFFFFFFFFFFFFFFF DUP2 GT ISZERO PUSH2 0x45B JUMPI PUSH2 0x45A PUSH2 0x2CE JUMP JUMPDEST JUMPDEST PUSH2 0x467 DUP6 DUP3 DUP7 ADD PUSH2 0x3D1 JUMP JUMPDEST SWAP3 POP POP PUSH1 0x20 PUSH2 0x478 DUP6 DUP3 DUP7 ADD PUSH2 0x414 JUMP JUMPDEST SWAP2 POP POP SWAP3 POP SWAP3 SWAP1 POP JUMP JUMPDEST PUSH32 0x4E487B7100000000000000000000000000000000000000000000000000000000 PUSH0 MSTORE PUSH1 0x22 PUSH1 0x4 MSTORE PUSH1 0x24 PUSH0 REVERT JUMPDEST PUSH0 PUSH1 0x2 DUP3 DIV SWAP1 POP PUSH1 0x1 DUP3 AND DUP1 PUSH2 0x4C6 JUMPI PUSH1 0x7F DUP3 AND SWAP2 POP JUMPDEST PUSH1 0x20 DUP3 LT DUP2 SUB PUSH2 0x4D9 JUMPI PUSH2 0x4D8 PUSH2 0x482 JUMP JUMPDEST JUMPDEST POP SWAP2 SWAP1 POP JUMP JUMPDEST PUSH0 DUP2 SWAP1 POP DUP2 PUSH0 MSTORE PUSH1 0x20 PUSH0 KECCAK256 SWAP1 POP SWAP2 SWAP1 POP JUMP JUMPDEST PUSH0 PUSH1 0x20 PUSH1 0x1F DUP4 ADD DIV SWAP1 POP SWAP2 SWAP1 POP JUMP JUMPDEST PUSH0 DUP3 DUP3 SHL SWAP1 POP SWAP3 SWAP2 POP POP JUMP JUMPDEST PUSH0 PUSH1 0x8 DUP4 MUL PUSH2 0x53B PUSH32 0xFFFFFFFFFFFFFFFFFFFFFFFFFFFFFFFFFFFFFFFFFFFFFFFFFFFFFFFFFFFFFFFF DUP3 PUSH2 0x500 JUMP JUMPDEST PUSH2 0x545 DUP7 DUP4 PUSH2 0x500 JUMP JUMPDEST SWAP6 POP DUP1 NOT DUP5 AND SWAP4 POP DUP1 DUP7 AND DUP5 OR SWAP3 POP POP POP SWAP4 SWAP3 POP POP POP JUMP JUMPDEST PUSH0 DUP2 SWAP1 POP SWAP2 SWAP1 POP JUMP JUMPDEST PUSH0 PUSH2 0x580 PUSH2 0x57B PUSH2 0x576 DUP5 PUSH2 0x27B JUMP JUMPDEST PUSH2 0x55D JUMP JUMPDEST PUSH2 0x27B JUMP JUMPDEST SWAP1 POP SWAP2 SWAP1 POP JUMP JUMPDEST PUSH0 DUP2 SWAP1 POP SWAP2 SWAP1 POP JUMP JUMPDEST PUSH2 0x599 DUP4 PUSH2 0x566 JUMP JUMPDEST PUSH2 0x5AD PUSH2 0x5A5 DUP3 PUSH2 0x587 JUMP JUMPDEST DUP5 DUP5 SLOAD PUSH2 0x50C JUMP JUMPDEST DUP3 SSTORE POP POP POP POP JUMP JUMPDEST PUSH0 PUSH0 SWAP1 POP SWAP1 JUMP JUMPDEST PUSH2 0x5C4 PUSH2 0x5B5 JUMP JUMPDEST PUSH2 0x5CF DUP2 DUP5 DUP5 PUSH2 0x590 JUMP JUMPDEST POP POP POP JUMP JUMPDEST JUMPDEST DUP2 DUP2 LT ISZERO PUSH2 0x5F2 JUMPI PUSH2 0x5E7 PUSH0 DUP3 PUSH2 0x5BC JUMP JUMPDEST PUSH1 0x1 DUP2 ADD SWAP1 POP PUSH2 0x5D5 JUMP JUMPDEST POP POP JUMP JUMPDEST PUSH1 0x1F DUP3 GT ISZERO PUSH2 0x637 JUMPI PUSH2 0x608 DUP2 PUSH2 0x4DF JUMP JUMPDEST PUSH2 0x611 DUP5 PUSH2 0x4F1 JUMP JUMPDEST DUP2 ADD PUSH1 0x20 DUP6 LT ISZERO PUSH2 0x620 JUMPI DUP2 SWAP1 POP JUMPDEST PUSH2 0x634 PUSH2 0x62C DUP6 PUSH2 0x4F1 JUMP JUMPDEST DUP4 ADD DUP3 PUSH2 0x5D4 JUMP JUMPDEST POP POP JUMPDEST POP POP POP JUMP JUMPDEST PUSH0 DUP3 DUP3 SHR SWAP1 POP SWAP3 SWAP2 POP POP JUMP JUMPDEST PUSH0 PUSH2 0x657 PUSH0 NOT DUP5 PUSH1 0x8 MUL PUSH2 0x63C JUMP JUMPDEST NOT DUP1 DUP4 AND SWAP2 POP POP SWAP3 SWAP2 POP POP JUMP JUMPDEST PUSH0 PUSH2 0x66F DUP4 DUP4 PUSH2 0x648 JUMP JUMPDEST SWAP2 POP DUP3 PUSH1 0x2 MUL DUP3 OR SWAP1 POP SWAP3 SWAP2 POP POP JUMP JUMPDEST PUSH2 0x688 DUP3 PUSH2 0x20B JUMP JUMPDEST PUSH8 0xFFFFFFFFFFFFFFFF DUP2 GT ISZERO PUSH2 0x6A1 JUMPI PUSH2 0x6A0 PUSH2 0x2DA JUMP JUMPDEST JUMPDEST PUSH2 0x6AB DUP3 SLOAD PUSH2 0x4AF JUMP JUMPDEST PUSH2 0x6B6 DUP3 DUP3 DUP6 PUSH2 0x5F6 JUMP JUMPDEST PUSH0 PUSH1 0x20 SWAP1 POP PUSH1 0x1F DUP4 GT PUSH1 0x1 DUP2 EQ PUSH2 0x6E7 JUMPI PUSH0 DUP5 ISZERO PUSH2 0x6D5 JUMPI DUP3 DUP8 ADD MLOAD SWAP1 POP JUMPDEST PUSH2 0x6DF DUP6 DUP3 PUSH2 0x664 JUMP JUMPDEST DUP7 SSTORE POP PUSH2 0x746 JUMP JUMPDEST PUSH1 0x1F NOT DUP5 AND PUSH2 0x6F5 DUP7 PUSH2 0x4DF JUMP JUMPDEST PUSH0 JUMPDEST DUP3 DUP2 LT ISZERO PUSH2 0x71C JUMPI DUP5 DUP10 ADD MLOAD DUP3 SSTORE PUSH1 0x1 DUP3 ADD SWAP2 POP PUSH1 0x20 DUP6 ADD SWAP5 POP PUSH1 0x20 DUP2 ADD SWAP1 POP PUSH2 0x6F7 JUMP JUMPDEST DUP7 DUP4 LT ISZERO PUSH2 0x739 JUMPI DUP5 DUP10 ADD MLOAD PUSH2 0x735 PUSH1 0x1F DUP10 AND DUP3 PUSH2 0x648 JUMP JUMPDEST DUP4 SSTORE POP JUMPDEST PUSH1 0x1 PUSH1 0x2 DUP9 MUL ADD DUP9 SSTORE POP POP POP JUMPDEST POP POP POP POP POP POP JUMP INVALID LOG2 PUSH5 0x6970667358 0x22 SLT KECCAK256 0xC0 0xFC 0x22 PUSH27 0x66B82DCA9E4759F7BA563A7FD7740EFFAD24F3B63973B9F1D80D2B SWAP12 PUSH5 0x736F6C6343 STOP ADDMOD 0x1E STOP CALLER "
				},
				"gasEstimates": {
					"creation": {
						"codeDepositCost": "384800",
						"executionCost": "422",
						"totalCost": "385222"
					},
					"external": {
						"GetPerson()": "infinite",
						"SetPerson(string,uint256)": "infinite",
						"personONE()": "infinite"
					}
				},
				"methodIdentifiers": {
					"GetPerson()": "70485b2b",
					"SetPerson(string,uint256)": "81cf40b7",
					"personONE()": "84615039"
				}
			},
			"storageLayout": {
				"storage": [
					{
						"astId": 9,
						"contract": "contracts/obnegt.sol:Storage",
						"label": "personONE",
						"offset": 0,
						"slot": "0",
						"type": "t_struct(Person)6_storage"
					}
				],
				"types": {
					"t_string_storage": {
						"encoding": "bytes",
						"label": "string",
						"numberOfBytes": "32"
					},
					"t_struct(Person)6_storage": {
						"encoding": "inplace",
						"label": "struct Storage.Person",
						"members": [
							{
								"astId": 3,
								"contract": "contracts/obnegt.sol:Storage",
								"label": "name",
								"offset": 0,
								"slot": "0",
								"type": "t_string_storage"
							},
							{
								"astId": 5,
								"contract": "contracts/obnegt.sol:Storage",
								"label": "age",
								"offset": 0,
								"slot": "1",
								"type": "t_uint256"
							}
						],
						"numberOfBytes": "64"
					},
					"t_uint256": {
						"encoding": "inplace",
						"label": "uint256",
						"numberOfBytes": "32"
					}
				}
			},
			"userdoc": {
				"kind": "user",
				"methods": {},
				"version": 1
			}
		}
	}
}